:020000001428C2
:1000060083120313F8010830FC00700DF80D740814
:10001600F80203181028F8070310F00DFC0B082847
:020026000800D0
:100028000730831603139F00850183128501831609
:10003800880183128801831687018312870118308B
:100048008316860083128601861D7728061A3C28A7
:10005800061E2F283C28071487100711871107123E
:100068008716861938283C28061E3B283C282C2849
:10007800061A4E28061E41284E2807148710071115
:1000880087110716871286194A284E28061E4D28FA
:100098004E283E28061A6028061E53286028071096
:1000A8008710071587150712871286195C2860289C
:1000B800061E5F2860285028061A7228061E652822
:1000C80072280710871407118715071287128619D7
:1000D8006E287228061E71287228622886197528CB
:1000E80076282A285629861D7A2856290714871023
:1000F8000711871107128716861D8328562917307E
:10010800A20000302202031CE628861D8C28E6285F
:100118000A30F4002208F00003207008A4000A3016
:10012800F4002208F00003207808F0007008A50009
:100138002208033C031CA628861DA328E62887114D
:1001480007168712861DA928E628A301193023025D
:100158000318DC2886140611250888002508850060
:10016800861DB728DC283430FC00F130FD00FD0B7B
:10017800BB28FC0BBB2800000000861DC428DC2817
:10018800861006152408880024088500861DCD28B9
:10019800DC283430FC00F130FD00FD0BD128FC0BCD
:1001A800D12800000000861DDA28DC28A30AAA2826
:1001B8002208003A031DE128E628861DE428E628DF
:1001C800A2038528861DE9285629071087100715D8
:1001D800871507128712861DF22856290F30A200AC
:1001E80000302202031C5229861DFB2852290A309E
:1001F800F4002208F00003207008A4000A30F4007C
:100208002208F00003207808F0007008A5002208F2
:10021800033C031C1529861D12295229071087142F
:100228000711861D18295229A30119302302031822
:100238004B29861406112508880025088500861D87
:1002480026294B293430FC00F130FD00FD0B2A290A
:10025800FC0B2A2900000000861D33294B29861033
:1002680006152408880024088500861D3C294B298A
:100278003430FC00F130FD00FD0B4029FC0B402917
:1002880000000000861D49294B29A30A19292208C4
:10029800003A031D50295229A203F428861D552926
:0802A800562977282828572960
:02400E004A2F37
:00000001FF
